:030000000204AD4A
:0C04AD00787FE4F6D8FD7581720204F43B
:1007EF00594F433A413D25642C423D25640D0A0083
:10074D00105E00000000000000000000000000002E
:02075D0000009A
:1006C6001209BD120A027FE87E03120986753BFFF6
:1006D600753C07753DEF85223E85283F7B007A00F5
:1006E600795E1200828F6E120A577B007A00795E5D
:1006F600E56EFD7C00120834120A611209497F0575
:070706007E0012098680F459
:0D075F000110AA08110000000000000000B9
:100A0200E4FFFE1209D58F227F047E001209D58FE2
:020A1200282298
:10092500EF70048D228005BF01198D28E4FFFE12AA
:10093500000EAD22E4FFFE1209ECAD287F047E0017
:040945001209EC2285
:04070D008F3A8D3B57
:10071100E4F53CE5122513253A253BF53C1200038F
:10072100120A577FBB120A26AF12120A26AF131202
:100731000A26AF3A120A26AF3B120A26AF3C120A2A
:0B074100267FFE120A26120A617F01CB
:01074C00228A
:10080000120003120A577FBB120A26AF22120A26D1
:10081000AF24120A26AF23120A26AF28120A26AFE7
:100820002A120A26AF29120A267FFE120A26120A67
:04083000617F0122C1
:1005C000E4F538120A4CEF7002FF22120A14AE381A
:1005D000053874112EF8A607E51164BB60037F028D
:1005E00022751900751A08E51A45196034120A4C6B
:1005F000EF602B120A14AE38053874112EF8A607D6
:10060000E538C394064014E516B4030FE51225132C
:100610002514B515037F01227F02220080C90080C6
:03062000C67F0290
:0106230022B4
:10062400E513640A7013E512B522071207858F24B7
:1006340080181207BA8F2A801CE513640B6006E544
:1006440013640C701CE512B5220B12088B8F23ADBA
:1006540023AF2480091208B28F29AD29AF2A0207DB
:100664000DE513B40D0D12088B8F231208B28F29D8
:05067400020800002255
:10053900E513B4F30C1206798F38E53804F53980E0
:100549006EE513B4F114AD14E4FF120925E4F5388E
:10055900F539120A028522128055E513B4F214AD59
:10056900147F01120925E4F538F539120A028528A4
:1005790012803CE513B4F908852238852839802F83
:10058900E51364F8703012088BEF600CE525700BE9
:100599007525011207858003E4F5251208B2EF607D
:1005A9000AE52B7011752B010207BAE4F52B22AD70
:0605B90039AF3812070DF6
:0105BF002219
:100949001205C0BF0118E512B4FF03020539E5120B
:0F09590065226005E512B528030206240022007E
:01096800226C
:10076C00082E1234567890ABCDEF013601013701CB
:0A0A410000007F027E0FDEFEDFFCE6
:010A4B002288
:0D0A3400E4F5C7F5C5F5C675C380F5C4220D
:1009D50075C78375C5018FC48EC375C65A75C6A5FF
:0609E50000AFC2120A344B
:0109EB0022E9
:1009EC0075C78375C5028FC48EC38DC275C65A7503
:0609FC00C6A500020A344A
:10000E0075C78375C5038FC48EC375C65A75C6A5CD
:04001E0000020A349E
:10098600EF1FAA0670011E4A6011E4FDEDC3940B29
:0B09960050EEE4FC0CBCBEFC0D80F138
:0109A1002233
:10086300E4F5937594FFF591759234F5957596FFBC
:1008730075B15075B2ACF5C975CA20C2B7C2B3C25F
:0808830095C292C2CDC294227D
:1009BD001208631209691209A2D2B2752619752798
:0809CD0064752C19752D6422DC
:0A0A5700D2B2C2910000D291002239
:050A6100C291C2B222A7
:10078500D2B7E4FBC2910000D2917F327E001209FC
:100795008620B60DC2B7C2917526177527707F01E1
:1007A50022C2917FF47E011209860BBB03D6C2B724
:0407B500C2917F006E
:0107B900221D
:1007BA00D2B3E4FBC2910000D2917F327E001209CB
:1007CA008620900DC2B3C291752C17752D707F01CA
:1007DA0022C2917FF47E011209860BBB03D6C2B3F3
:0407EA00C2917F0039
:0107EE0022E8
:10088B00E4F9FBD2CD120A4130CC0109C2CD7F0174
:10089B007E001209860BBB03EAC2CDE9C394034069
:0608AB00037F00227F0123
:0108B1002224
:1008B200E4F9FBD294120A4130930109C2947F01F8
:1008C2007E001209860BBB03EAC294E9C39403407B
:0608D200037F00227F01FC
:0108D80022FD
:08077C0002190000021C00003C
:10096900538E7F5389F0438901E4F58A758CDCF550
:0D0979001BD28CD2A9D2AF7F05FE020986E9
:03000B000203826B
:10038200C0E0C0D0758A00758CDC051BE51A4519E2
:100392006008E51A151A70021519E51D451C60085A
:1003A200E51D151D7002151CE52745266008E52789
:1003B200152770021526E52D452C6008E52D152D13
:1003C2007002152CE51BC3940A404D30B607752404
:1003D20000C295801BE52464016009752617752704
:1003E20070752401E52745266004D2958002C295E6
:1003F200309007752A00C292801BE52A64016009C9
:10040200752C17752D70752A01E52D452C6004D2C7
:0D041200928002C292751B00D0D0D0E03263
:1009A200120003759850758E15D29C75D7E075D6D6
:0B09B200FE438E10D2ACD2AF7F0122BA
:03002300020900CF
:10090000C0E0C0D075D008309811C298744E254D03
:10091000F8A699054DE54D540FF54D309902C29951
:05092000D0D0D0E03250
:0E0A2600C2ACC2998F993099FDC299D2AC2210
:0A0834008B388A39893A8C3B8D3CE1
:10083E00E4FDFCC3ED953CEC953B5018AB38AA3962
:10084E00A93A8D828C8312041FFF120A260DBD0059
:04085E00010C80DF2A
:010862002273
:0B0A4C00E54CB54D037F00227F012226
:100A1400744E254CF8E6FFE4F6054CE54C540FF50E
:010A24004C85
:010A250022AE
:06000300E4F54DF54C226E
:1004B9000206C6E493A3F8E493A34003F68001F28D
:1004C90008DFF48029E493A3F85407240CC8C33344
:1004D900C4540F4420C8834004F456800146F6DF13
:1004E900E4800B010204081020408090074DE47E4F
:1004F900019360BCA3FF543F30E509541FFEE49308
:10050900A360010ECF54C025E060A840B8E493A3CE
:10051900FAE493A3F8E493A3C8C582C8CAC583CAF9
:10052900F0A3C8C582C8CAC583CADFE9DEE780BEB1
:010784000074
:10041F00BB010CE58229F582E5833AF583E0225092
:10042F0006E92582F8E622BBFE06E92582F8E222DC
:0D043F00E58229F582E5833AF583E49322F6
:10002600E547243BF8E60547227838300702783B57
:10003600E475F00112047702044C2000EB7F2ED207
:10004600008018EF540F2490D43440D4FF30040BB2
:10005600EF24BFB41A0050032461FFE5486002157F
:1000660048054BE54B7002054A30070D7838E475B4
:10007600F001120477EF0204650208D97403D2076F
:100086008003E4C207F5478B388A39893AE4F54894
:10009600F54AF54BE54860077F2012006180F5754B
:1000A60049FFC201C200C202C203C205C206C2089B
:1000B60012002FFF700D3007057F00120072AF4B44
:1000C600AE4A22B4255FC2D5C20412002FFF24D047
:1000D600B40A00501A75F00A784830D50508B6FFFC
:1000E6000106C6A426F620D5047002D20380D924C0
:1000F600CFB41A00EF5004C2E5D204020272D20154
:1001060080C6D20080C0D20280BCD2D580BAD205C9
:1001160080B47F201200612002077401B5480040B8
:10012600F1120026FF12006102009AD208D2068060
:1001360095120026FB120026FA120026F94A4B7089
:100146000679437A037BFF20022EE548602A7E006B
:100156008E8275830012041F60060EEE654970F0EC
:10016600C2D5EBC0E0EAC0E0E9C0E0EE1202B9D0C9
:10017600E0F9D0E0FAD0E0FB12044CFF60AAEBC035
:10018600E0EAC0E0E9C0E0120061D0E02401F9D065
:10019600E03400FAD0E0FBE5490460DCD549D980BB
:1001A600877BFF7A0279B5D202809C79108002792A
:1001B60008C206C2088008D2D5790A8004790AC224
:1001C600D5E549047002F549E4FAFDFEFF12002662
:1001D600FC7B08200113120026FD7B1030000A125A
:1001E6000026FE120026FF7B20EC3382D592D550E6
:1001F60013C3E43000069FFFE49EFEE42001039D46
:10020600FDE49CFCE4CBF8C201EC700CCFCECDCC67
:10021600E824F8F870F38017C3EF33FFEE33FEEDF2
:1002260033FDEC33FCEB33FB994002FB0FD8E9EBD3
:10023600300105F8D0E0C448B201C0E00AEC4D4EEA
:100246004F78207B0070C2EAB5490040BCC0E0127E
:1002560002BBD0F0D0E0200104C4C0E0C4B201C0AB
:10026600F012004AD0F0D5F0EB02009A1204870192
:10027600375301B15801084C01044201B54F01BD85
:0F0286004401BD49011D4301C35501A74601A70E
:100295004501A747036350010C2D01102E01332B97
:1002A500011423013120034C2A00CC480000012B06
:1002B5003F3F3F00790AA2D5200314300509B91044
:1002C500020404B9080104A2D52006025001042045
:1002D50002689202B548005034C0E07F203003190F
:1002E5007F30A20272067205500F120312C202C2BB
:1002F50006C205C2087F30800F300503E9C0E01251
:100305000061300503D0E0F9D0E0B548CC300517E1
:100315007F30B9100C1200617F583004077F788058
:1003250003B908031200613002057F2D0200617FC9
:10033500202008F87F2B2006F322920280CF286E1A
:10034500756C6C2900D2011200263001F8C20178C3
:100355004830D50108F60200CC2D5043495812000B
:10036500262403B405004001E490035E9312005275
:0D037500743A120052D2037548040201B11F
:10067900AC6FAD70AE71AF727810EC4D4E4F700427
:100689007CA57DA5C3EC13FCED13FDEE13FEEF1362
:10069900FF5010EC64CCFCED644CFDEE644EFEEFB3
:1006A90064CEFFD8DF8C6F8D708E718F72EE547FA0
:0D06B900FE228E6F8F7074A5F571F5722210
:10044C00BB010689828A83E0225002E722BBFE02AE
:09045C00E32289828A83E49322E1
:10046500BB010689828A83F0225002F722BBFE0176
:02047500F32270
:10047700FAE6FB0808E6F925F0F618E6CA3AF62286
:10048700D083D082F8E4937012740193700DA3A304
:1004970093F8740193F5828883E473740293686018
:0604A700EFA3A3A380DF18
:1008D900EFB40A07740D1208E4740A309811A89944
:1008E900B8130CC2983098FDA899C298B811F6307F
:0708F90099FDC299F5992257
:00000001FF
